{
  "contractName": "piiSZG",
  "abi": [
    {
      "constant": true,
      "inputs": [
        {
          "name": "",
          "type": "address"
        }
      ],
      "name": "members",
      "outputs": [
        {
          "name": "personType",
          "type": "uint8"
        },
        {
          "name": "universityComponenetType",
          "type": "uint8"
        },
        {
          "name": "set",
          "type": "bool"
        },
        {
          "name": "tid",
          "type": "string"
        }
      ],
      "payable": false,
      "stateMutability": "view",
      "type": "function"
    },
    {
      "constant": true,
      "inputs": [
        {
          "name": "",
          "type": "address"
        }
      ],
      "name": "universityComponenets",
      "outputs": [
        {
          "name": "universityComponenetType",
          "type": "uint8"
        },
        {
          "name": "openingTime",
          "type": "uint32"
        },
        {
          "name": "closingTime",
          "type": "uint32"
        },
        {
          "name": "universityComponenetAccount",
          "type": "address"
        },
        {
          "name": "set",
          "type": "bool"
        }
      ],
      "payable": false,
      "stateMutability": "view",
      "type": "function"
    },
    {
      "anonymous": false,
      "inputs": [
        {
          "indexed": false,
          "name": "controlEvent",
          "type": "bool"
        }
      ],
      "name": "ControlEvent",
      "type": "event"
    },
    {
      "constant": true,
      "inputs": [
        {
          "name": "_hValue",
          "type": "address"
        }
      ],
      "name": "getPersonType",
      "outputs": [
        {
          "name": "",
          "type": "uint256"
        }
      ],
      "payable": false,
      "stateMutability": "view",
      "type": "function"
    },
    {
      "constant": true,
      "inputs": [
        {
          "name": "_hValue",
          "type": "address"
        }
      ],
      "name": "getUniversityComponenetTypeMem",
      "outputs": [
        {
          "name": "",
          "type": "uint256"
        }
      ],
      "payable": false,
      "stateMutability": "view",
      "type": "function"
    },
    {
      "constant": true,
      "inputs": [
        {
          "name": "_hValue",
          "type": "address"
        }
      ],
      "name": "getMemberSet",
      "outputs": [
        {
          "name": "",
          "type": "bool"
        }
      ],
      "payable": false,
      "stateMutability": "view",
      "type": "function"
    },
    {
      "constant": true,
      "inputs": [
        {
          "name": "_hValue",
          "type": "address"
        }
      ],
      "name": "getUniversityComponenetTypeUC",
      "outputs": [
        {
          "name": "",
          "type": "uint256"
        }
      ],
      "payable": false,
      "stateMutability": "view",
      "type": "function"
    },
    {
      "constant": true,
      "inputs": [
        {
          "name": "_hValue",
          "type": "address"
        }
      ],
      "name": "getOpeningTime",
      "outputs": [
        {
          "name": "",
          "type": "uint32"
        }
      ],
      "payable": false,
      "stateMutability": "view",
      "type": "function"
    },
    {
      "constant": true,
      "inputs": [
        {
          "name": "_hValue",
          "type": "address"
        }
      ],
      "name": "getClosingTime",
      "outputs": [
        {
          "name": "",
          "type": "uint32"
        }
      ],
      "payable": false,
      "stateMutability": "view",
      "type": "function"
    },
    {
      "constant": true,
      "inputs": [
        {
          "name": "_hValue",
          "type": "address"
        }
      ],
      "name": "getUniversityComponenetSet",
      "outputs": [
        {
          "name": "",
          "type": "bool"
        }
      ],
      "payable": false,
      "stateMutability": "view",
      "type": "function"
    },
    {
      "constant": true,
      "inputs": [
        {
          "name": "_hValue",
          "type": "address"
        },
        {
          "name": "time",
          "type": "uint256"
        }
      ],
      "name": "getAccessFromUC",
      "outputs": [
        {
          "name": "",
          "type": "bool"
        },
        {
          "name": "",
          "type": "address"
        }
      ],
      "payable": false,
      "stateMutability": "view",
      "type": "function"
    },
    {
      "constant": true,
      "inputs": [
        {
          "name": "_hValue",
          "type": "address"
        },
        {
          "name": "time",
          "type": "uint256"
        }
      ],
      "name": "getAccessFromMem",
      "outputs": [
        {
          "name": "",
          "type": "bool"
        },
        {
          "name": "",
          "type": "address"
        }
      ],
      "payable": false,
      "stateMutability": "view",
      "type": "function"
    },
    {
      "constant": false,
      "inputs": [
        {
          "name": "_hValue",
          "type": "address"
        },
        {
          "name": "_personType",
          "type": "uint8"
        },
        {
          "name": "_uComponenetType",
          "type": "uint8"
        },
        {
          "name": "_tid",
          "type": "string"
        }
      ],
      "name": "createMember",
      "outputs": [
        {
          "name": "",
          "type": "bool"
        }
      ],
      "payable": false,
      "stateMutability": "nonpayable",
      "type": "function"
    },
    {
      "constant": false,
      "inputs": [
        {
          "name": "_hValue",
          "type": "address"
        },
        {
          "name": "_uComponenetType",
          "type": "uint8"
        },
        {
          "name": "_openingTime",
          "type": "uint32"
        },
        {
          "name": "_closingTime",
          "type": "uint32"
        }
      ],
      "name": "createUniversityComponenet",
      "outputs": [
        {
          "name": "",
          "type": "bool"
        }
      ],
      "payable": false,
      "stateMutability": "nonpayable",
      "type": "function"
    },
    {
      "constant": false,
      "inputs": [
        {
          "name": "addressHashMember",
          "type": "address"
        },
        {
          "name": "addressHashUniversityComponenet",
          "type": "address"
        },
        {
          "name": "ttime",
          "type": "uint256"
        },
        {
          "name": "transactionDateTime",
          "type": "uint256"
        },
        {
          "name": "tid",
          "type": "string"
        }
      ],
      "name": "callAccessTransaction",
      "outputs": [
        {
          "name": "",
          "type": "bool"
        }
      ],
      "payable": false,
      "stateMutability": "nonpayable",
      "type": "function"
    }
  ],
  "bytecode": "0x6080604052620151806000556003600160006101000a81548160ff021916908360ff16021790555060036001806101000a81548160ff021916908360ff16021790555034801561004e57600080fd5b50612fa88061005e6000396000f3006080604052600436106100d0576000357c0100000000000000000000000000000000000000000000000000000000900463ffffffff16806308ae4b0c146100d55780631b0949e0146101c65780637aaa8054146102295780637d6b820b1461028457806387780003146102db5780638d0e414d1461036357806392d714e9146104385780639a52742b1461048f578063a86c2358146104e6578063bcb61745146105a1578063d87dcc121461066a578063f35284ef146106cd578063fcbf149614610765578063fe055ef1146107fd575b600080fd5b3480156100e157600080fd5b50610116600480360381019080803573ffffffffffffffffffffffffffffffffffffffff169060200190929190505050610858565b6040518085600281111561012657fe5b60ff16815260200184600281111561013a57fe5b60ff1681526020018315151515815260200180602001828103825283818151815260200191508051906020019080838360005b8381101561018857808201518184015260208101905061016d565b50505050905090810190601f1680156101b55780820380516001836020036101000a031916815260200191505b509550505050505060405180910390f35b3480156101d257600080fd5b50610207600480360381019080803573ffffffffffffffffffffffffffffffffffffffff169060200190929190505050610947565b604051808263ffffffff1663ffffffff16815260200191505060405180910390f35b34801561023557600080fd5b5061026a600480360381019080803573ffffffffffffffffffffffffffffffffffffffff169060200190929190505050610a05565b604051808215151515815260200191505060405180910390f35b34801561029057600080fd5b506102c5600480360381019080803573ffffffffffffffffffffffffffffffffffffffff169060200190929190505050610ac0565b6040518082815260200191505060405180910390f35b3480156102e757600080fd5b50610349600480360381019080803573ffffffffffffffffffffffffffffffffffffffff169060200190929190803560ff169060200190929190803563ffffffff169060200190929190803563ffffffff169060200190929190505050610b86565b604051808215151515815260200191505060405180910390f35b34801561036f57600080fd5b5061041e600480360381019080803573ffffffffffffffffffffffffffffffffffffffff169060200190929190803573ffffffffffffffffffffffffffffffffffffffff1690602001909291908035906020019092919080359060200190929190803590602001908201803590602001908080601f0160208091040260200160405190810160405280939291908181526020018383808284378201915050505050509192919290505050610dfd565b604051808215151515815260200191505060405180910390f35b34801561044457600080fd5b50610479600480360381019080803573ffffffffffffffffffffffffffffffffffffffff1690602001909291905050506119a3565b6040518082815260200191505060405180910390f35b34801561049b57600080fd5b506104d0600480360381019080803573ffffffffffffffffffffffffffffffffffffffff169060200190929190505050611a69565b6040518082815260200191505060405180910390f35b3480156104f257600080fd5b50610587600480360381019080803573ffffffffffffffffffffffffffffffffffffffff169060200190929190803560ff169060200190929190803560ff169060200190929190803590602001908201803590602001908080601f0160208091040260200160405190810160405280939291908181526020018383808284378201915050505050509192919290505050611b2f565b604051808215151515815260200191505060405180910390f35b3480156105ad57600080fd5b506105e2600480360381019080803573ffffffffffffffffffffffffffffffffffffffff169060200190929190505050611d55565b604051808660028111156105f257fe5b60ff1681526020018563ffffffff1663ffffffff1681526020018463ffffffff1663ffffffff1681526020018373ffffffffffffffffffffffffffffffffffffffff1673ffffffffffffffffffffffffffffffffffffffff168152602001821515151581526020019550505050505060405180910390f35b34801561067657600080fd5b506106ab600480360381019080803573ffffffffffffffffffffffffffffffffffffffff169060200190929190505050611de5565b604051808263ffffffff1663ffffffff16815260200191505060405180910390f35b3480156106d957600080fd5b50610718600480360381019080803573ffffffffffffffffffffffffffffffffffffffff16906020019092919080359060200190929190505050611ea3565b60405180831515151581526020018273ffffffffffffffffffffffffffffffffffffffff1673ffffffffffffffffffffffffffffffffffffffff1681526020019250505060405180910390f35b34801561077157600080fd5b506107b0600480360381019080803573ffffffffffffffffffffffffffffffffffffffff16906020019092919080359060200190929190505050611fee565b60405180831515151581526020018273ffffffffffffffffffffffffffffffffffffffff1673ffffffffffffffffffffffffffffffffffffffff1681526020019250505060405180910390f35b34801561080957600080fd5b5061083e600480360381019080803573ffffffffffffffffffffffffffffffffffffffff169060200190929190505050612139565b604051808215151515815260200191505060405180910390f35b60036020528060005260406000206000915090508060000160009054906101000a900460ff16908060000160019054906101000a900460ff16908060000160029054906101000a900460ff1690806001018054600181600116156101000203166002900480601f01602080910402602001604051908101604052809291908181526020018280546001816001161561010002031660029004801561093d5780601f106109125761010080835404028352916020019161093d565b820191906000526020600020905b81548152906001019060200180831161092057829003601f168201915b5050505050905084565b600060011515600260008473ffffffffffffffffffffffffffffffffffffffff1673ffffffffffffffffffffffffffffffffffffffff168152602001908152602001600020600001601d9054906101000a900460ff1615151415156109ab57600080fd5b600260008373ffffffffffffffffffffffffffffffffffffffff1673ffffffffffffffffffffffffffffffffffffffff16815260200190815260200160002060000160059054906101000a900463ffffffff169050919050565b600060011515600260008473ffffffffffffffffffffffffffffffffffffffff1673ffffffffffffffffffffffffffffffffffffffff168152602001908152602001600020600001601d9054906101000a900460ff161515141515610a6957600080fd5b600260008373ffffffffffffffffffffffffffffffffffffffff1673ffffffffffffffffffffffffffffffffffffffff168152602001908152602001600020600001601d9054906101000a900460ff169050919050565b600060011515600260008473ffffffffffffffffffffffffffffffffffffffff1673ffffffffffffffffffffffffffffffffffffffff168152602001908152602001600020600001601d9054906101000a900460ff161515141515610b2457600080fd5b600260008373ffffffffffffffffffffffffffffffffffffffff1673ffffffffffffffffffffffffffffffffffffffff16815260200190815260200160002060000160009054906101000a900460ff166002811115610b7f57fe5b9050919050565b60006001809054906101000a900460ff1660ff16846002811115610ba657fe5b108015610bbb57506000548363ffffffff1611155b8015610bcf57506000548263ffffffff1611155b1515610bda57600080fd5b60011515600260008773ffffffffffffffffffffffffffffffffffffffff1673ffffffffffffffffffffffffffffffffffffffff168152602001908152602001600020600001601d9054906101000a900460ff16151514151515610c3d57600080fd5b60a060405190810160405280856002811115610c5557fe5b81526020018463ffffffff1681526020018363ffffffff1681526020013373ffffffffffffffffffffffffffffffffffffffff16815260200160011515815250600260008773ffffffffffffffffffffffffffffffffffffffff1673ffffffffffffffffffffffffffffffffffffffff16815260200190815260200160002060008201518160000160006101000a81548160ff02191690836002811115610cf857fe5b021790555060208201518160000160016101000a81548163ffffffff021916908363ffffffff16021790555060408201518160000160056101000a81548163ffffffff021916908363ffffffff16021790555060608201518160000160096101000a81548173ffffffffffffffffffffffffffffffffffffffff021916908373ffffffffffffffffffffffffffffffffffffffff160217905550608082015181600001601d6101000a81548160ff0219169083151502179055509050507f22c6dfbde057f5340f316909b0b1fd76780b7fde3a55e8a155a66787e994e75d6001604051808215151515815260200191505060405180910390a160019050949350505050565b600080600260008773ffffffffffffffffffffffffffffffffffffffff1673ffffffffffffffffffffffffffffffffffffffff16815260200190815260200160002060000160099054906101000a900473ffffffffffffffffffffffffffffffffffffffff1673ffffffffffffffffffffffffffffffffffffffff163373ffffffffffffffffffffffffffffffffffffffff16141515610e9c57600080fd5b6000548511158015610f01575060011515600360008973ffffffffffffffffffffffffffffffffffffffff1673ffffffffffffffffffffffffffffffffffffffff16815260200190815260200160002060000160029054906101000a900460ff161515145b8015610f60575060011515600260008873ffffffffffffffffffffffffffffffffffffffff1673ffffffffffffffffffffffffffffffffffffffff168152602001908152602001600020600001601d9054906101000a900460ff161515145b1515610f6b57600080fd5b60011515610f78846121f4565b1515141515610f8657600080fd5b60009050600360008873ffffffffffffffffffffffffffffffffffffffff1673ffffffffffffffffffffffffffffffffffffffff16815260200190815260200160002060010160405180828054600181600116156101000203166002900480156110275780601f10611005576101008083540402835291820191611027565b820191906000526020600020905b815481529060010190602001808311611013575b5050915050604051809103902060001916836040518082805190602001908083835b60208310151561106e5780518252602082019150602081019050602083039250611049565b6001836020036101000a0380198251168184511680821785525050505050509050019150506040518091039020600019161415156110eb577f22c6dfbde057f5340f316909b0b1fd76780b7fde3a55e8a155a66787e994e75d6000604051808215151515815260200191505060405180910390a160009150611999565b6110f687878761262f565b905060011515811515141561131e57604080519081016040528082151581526020018873ffffffffffffffffffffffffffffffffffffffff16815250600260008873ffffffffffffffffffffffffffffffffffffffff1673ffffffffffffffffffffffffffffffffffffffff168152602001908152602001600020600101600086815260200190815260200160002060008201518160000160006101000a81548160ff02191690831515021790555060208201518160000160016101000a81548173ffffffffffffffffffffffffffffffffffffffff021916908373ffffffffffffffffffffffffffffffffffffffff160217905550905050604080519081016040528082151581526020018773ffffffffffffffffffffffffffffffffffffffff16815250600360008973ffffffffffffffffffffffffffffffffffffffff1673ffffffffffffffffffffffffffffffffffffffff168152602001908152602001600020600201600086815260200190815260200160002060008201518160000160006101000a81548160ff02191690831515021790555060208201518160000160016101000a81548173ffffffffffffffffffffffffffffffffffffffff021916908373ffffffffffffffffffffffffffffffffffffffff1602179055509050507f22c6dfbde057f5340f316909b0b1fd76780b7fde3a55e8a155a66787e994e75d6001604051808215151515815260200191505060405180910390a160019150611999565b61132987878761297e565b905060011515811515141561155157604080519081016040528082151581526020018873ffffffffffffffffffffffffffffffffffffffff16815250600260008873ffffffffffffffffffffffffffffffffffffffff1673ffffffffffffffffffffffffffffffffffffffff168152602001908152602001600020600101600086815260200190815260200160002060008201518160000160006101000a81548160ff02191690831515021790555060208201518160000160016101000a81548173ffffffffffffffffffffffffffffffffffffffff021916908373ffffffffffffffffffffffffffffffffffffffff160217905550905050604080519081016040528082151581526020018773ffffffffffffffffffffffffffffffffffffffff16815250600360008973ffffffffffffffffffffffffffffffffffffffff1673ffffffffffffffffffffffffffffffffffffffff168152602001908152602001600020600201600086815260200190815260200160002060008201518160000160006101000a81548160ff02191690831515021790555060208201518160000160016101000a81548173ffffffffffffffffffffffffffffffffffffffff021916908373ffffffffffffffffffffffffffffffffffffffff1602179055509050507f22c6dfbde057f5340f316909b0b1fd76780b7fde3a55e8a155a66787e994e75d6001604051808215151515815260200191505060405180910390a160019150611999565b61155c878787612c9e565b905060011515811515141561178457604080519081016040528082151581526020018873ffffffffffffffffffffffffffffffffffffffff16815250600260008873ffffffffffffffffffffffffffffffffffffffff1673ffffffffffffffffffffffffffffffffffffffff168152602001908152602001600020600101600086815260200190815260200160002060008201518160000160006101000a81548160ff02191690831515021790555060208201518160000160016101000a81548173ffffffffffffffffffffffffffffffffffffffff021916908373ffffffffffffffffffffffffffffffffffffffff160217905550905050604080519081016040528082151581526020018773ffffffffffffffffffffffffffffffffffffffff16815250600360008973ffffffffffffffffffffffffffffffffffffffff1673ffffffffffffffffffffffffffffffffffffffff168152602001908152602001600020600201600086815260200190815260200160002060008201518160000160006101000a81548160ff02191690831515021790555060208201518160000160016101000a81548173ffffffffffffffffffffffffffffffffffffffff021916908373ffffffffffffffffffffffffffffffffffffffff1602179055509050507f22c6dfbde057f5340f316909b0b1fd76780b7fde3a55e8a155a66787e994e75d6001604051808215151515815260200191505060405180910390a160019150611999565b604080519081016040528082151581526020018873ffffffffffffffffffffffffffffffffffffffff16815250600260008873ffffffffffffffffffffffffffffffffffffffff1673ffffffffffffffffffffffffffffffffffffffff168152602001908152602001600020600101600086815260200190815260200160002060008201518160000160006101000a81548160ff02191690831515021790555060208201518160000160016101000a81548173ffffffffffffffffffffffffffffffffffffffff021916908373ffffffffffffffffffffffffffffffffffffffff160217905550905050604080519081016040528082151581526020018773ffffffffffffffffffffffffffffffffffffffff16815250600360008973ffffffffffffffffffffffffffffffffffffffff1673ffffffffffffffffffffffffffffffffffffffff168152602001908152602001600020600201600086815260200190815260200160002060008201518160000160006101000a81548160ff02191690831515021790555060208201518160000160016101000a81548173ffffffffffffffffffffffffffffffffffffffff021916908373ffffffffffffffffffffffffffffffffffffffff1602179055509050507f22c6dfbde057f5340f316909b0b1fd76780b7fde3a55e8a155a66787e994e75d6000604051808215151515815260200191505060405180910390a1600091505b5095945050505050565b600060011515600360008473ffffffffffffffffffffffffffffffffffffffff1673ffffffffffffffffffffffffffffffffffffffff16815260200190815260200160002060000160029054906101000a900460ff161515141515611a0757600080fd5b600360008373ffffffffffffffffffffffffffffffffffffffff1673ffffffffffffffffffffffffffffffffffffffff16815260200190815260200160002060000160009054906101000a900460ff166002811115611a6257fe5b9050919050565b600060011515600360008473ffffffffffffffffffffffffffffffffffffffff1673ffffffffffffffffffffffffffffffffffffffff16815260200190815260200160002060000160029054906101000a900460ff161515141515611acd57600080fd5b600360008373ffffffffffffffffffffffffffffffffffffffff1673ffffffffffffffffffffffffffffffffffffffff16815260200190815260200160002060000160019054906101000a900460ff166002811115611b2857fe5b9050919050565b6000600160009054906101000a900460ff1660ff16846002811115611b5057fe5b108015611b7857506001809054906101000a900460ff1660ff16836002811115611b7657fe5b105b1515611b8357600080fd5b60011515600360008773ffffffffffffffffffffffffffffffffffffffff1673ffffffffffffffffffffffffffffffffffffffff16815260200190815260200160002060000160029054906101000a900460ff16151514151515611be657600080fd5b60011515611bf3836121f4565b1515141515611c0157600080fd5b608060405190810160405280856002811115611c1957fe5b8152602001846002811115611c2a57fe5b815260200160011515815260200183815250600360008773ffffffffffffffffffffffffffffffffffffffff1673ffffffffffffffffffffffffffffffffffffffff16815260200190815260200160002060008201518160000160006101000a81548160ff02191690836002811115611c9f57fe5b021790555060208201518160000160016101000a81548160ff02191690836002811115611cc857fe5b021790555060408201518160000160026101000a81548160ff0219169083151502179055506060820151816001019080519060200190611d09929190612e37565b509050507f22c6dfbde057f5340f316909b0b1fd76780b7fde3a55e8a155a66787e994e75d6001604051808215151515815260200191505060405180910390a160019050949350505050565b60026020528060005260406000206000915090508060000160009054906101000a900460ff16908060000160019054906101000a900463ffffffff16908060000160059054906101000a900463ffffffff16908060000160099054906101000a900473ffffffffffffffffffffffffffffffffffffffff169080600001601d9054906101000a900460ff16905085565b600060011515600260008473ffffffffffffffffffffffffffffffffffffffff1673ffffffffffffffffffffffffffffffffffffffff168152602001908152602001600020600001601d9054906101000a900460ff161515141515611e4957600080fd5b600260008373ffffffffffffffffffffffffffffffffffffffff1673ffffffffffffffffffffffffffffffffffffffff16815260200190815260200160002060000160019054906101000a900463ffffffff169050919050565b60008060011515600260008673ffffffffffffffffffffffffffffffffffffffff1673ffffffffffffffffffffffffffffffffffffffff168152602001908152602001600020600001601d9054906101000a900460ff161515141515611f0857600080fd5b600260008573ffffffffffffffffffffffffffffffffffffffff1673ffffffffffffffffffffffffffffffffffffffff168152602001908152602001600020600101600084815260200190815260200160002060000160009054906101000a900460ff16600260008673ffffffffffffffffffffffffffffffffffffffff1673ffffffffffffffffffffffffffffffffffffffff168152602001908152602001600020600101600085815260200190815260200160002060000160019054906101000a900473ffffffffffffffffffffffffffffffffffffffff16915091509250929050565b60008060011515600360008673ffffffffffffffffffffffffffffffffffffffff1673ffffffffffffffffffffffffffffffffffffffff16815260200190815260200160002060000160029054906101000a900460ff16151514151561205357600080fd5b600360008573ffffffffffffffffffffffffffffffffffffffff1673ffffffffffffffffffffffffffffffffffffffff168152602001908152602001600020600201600084815260200190815260200160002060000160009054906101000a900460ff16600360008673ffffffffffffffffffffffffffffffffffffffff1673ffffffffffffffffffffffffffffffffffffffff168152602001908152602001600020600201600085815260200190815260200160002060000160019054906101000a900473ffffffffffffffffffffffffffffffffffffffff16915091509250929050565b600060011515600360008473ffffffffffffffffffffffffffffffffffffffff1673ffffffffffffffffffffffffffffffffffffffff16815260200190815260200160002060000160029054906101000a900460ff16151514151561219d57600080fd5b600360008373ffffffffffffffffffffffffffffffffffffffff1673ffffffffffffffffffffffffffffffffffffffff16815260200190815260200160002060000160029054906101000a900460ff169050919050565b600060606000839150601882511415156122115760009250612628565b5b60188110156126235760307f010000000000000000000000000000000000000000000000000000000000000002828281518110151561224d57fe5b9060200101517f010000000000000000000000000000000000000000000000000000000000000090047f0100000000000000000000000000000000000000000000000000000000000000027effffffffffffffffffffffffffffffffffffffffffffffffffffffffffffff191610158015612365575060397f01000000000000000000000000000000000000000000000000000000000000000282828151811015156122f557fe5b9060200101517f010000000000000000000000000000000000000000000000000000000000000090047f0100000000000000000000000000000000000000000000000000000000000000027effffffffffffffffffffffffffffffffffffffffffffffffffffffffffffff191611155b806124b6575060417f010000000000000000000000000000000000000000000000000000000000000002828281518110151561239d57fe5b9060200101517f010000000000000000000000000000000000000000000000000000000000000090047f0100000000000000000000000000000000000000000000000000000000000000027effffffffffffffffffffffffffffffffffffffffffffffffffffffffffffff1916101580156124b55750605a7f010000000000000000000000000000000000000000000000000000000000000002828281518110151561244557fe5b9060200101517f010000000000000000000000000000000000000000000000000000000000000090047f0100000000000000000000000000000000000000000000000000000000000000027effffffffffffffffffffffffffffffffffffffffffffffffffffffffffffff191611155b5b80612607575060617f01000000000000000000000000000000000000000000000000000000000000000282828151811015156124ee57fe5b9060200101517f010000000000000000000000000000000000000000000000000000000000000090047f0100000000000000000000000000000000000000000000000000000000000000027effffffffffffffffffffffffffffffffffffffffffffffffffffffffffffff1916101580156126065750607a7f010000000000000000000000000000000000000000000000000000000000000002828281518110151561259657fe5b9060200101517f010000000000000000000000000000000000000000000000000000000000000090047f0100000000000000000000000000000000000000000000000000000000000000027effffffffffffffffffffffffffffffffffffffffffffffffffffffffffffff191611155b5b15156126165760009250612628565b8080600101915050612212565b600192505b5050919050565b6000612639612eb7565b612641612f16565b600260008673ffffffffffffffffffffffffffffffffffffffff1673ffffffffffffffffffffffffffffffffffffffff16815260200190815260200160002060a060405190810160405290816000820160009054906101000a900460ff1660028111156126aa57fe5b60028111156126b557fe5b81526020016000820160019054906101000a900463ffffffff1663ffffffff1663ffffffff1681526020016000820160059054906101000a900463ffffffff1663ffffffff1663ffffffff1681526020016000820160099054906101000a900473ffffffffffffffffffffffffffffffffffffffff1673ffffffffffffffffffffffffffffffffffffffff1673ffffffffffffffffffffffffffffffffffffffff16815260200160008201601d9054906101000a900460ff1615151515815250509150600360008773ffffffffffffffffffffffffffffffffffffffff1673ffffffffffffffffffffffffffffffffffffffff168152602001908152602001600020608060405190810160405290816000820160009054906101000a900460ff1660028111156127e157fe5b60028111156127ec57fe5b81526020016000820160019054906101000a900460ff16600281111561280e57fe5b600281111561281957fe5b81526020016000820160029054906101000a900460ff16151515158152602001600182018054600181600116156101000203166002900480601f0160208091040260200160405190810160405280929190818152602001828054600181600116156101000203166002900480156128d15780601f106128a6576101008083540402835291602001916128d1565b820191906000526020600020905b8154815290600101906020018083116128b457829003601f168201915b5050505050815250509050806020015160028111156128ec57fe5b826000015160028111156128fc57fe5b141561297057816020015163ffffffff1684101580156129265750816040015163ffffffff168411155b156129345760019250612975565b60018160000151600281111561294657fe5b1480612961575060028160000151600281111561295f57fe5b145b1561296f5760019250612975565b5b600092505b50509392505050565b6000612988612eb7565b612990612f16565b600260008673ffffffffffffffffffffffffffffffffffffffff1673ffffffffffffffffffffffffffffffffffffffff16815260200190815260200160002060a060405190810160405290816000820160009054906101000a900460ff1660028111156129f957fe5b6002811115612a0457fe5b81526020016000820160019054906101000a900463ffffffff1663ffffffff1663ffffffff1681526020016000820160059054906101000a900463ffffffff1663ffffffff1663ffffffff1681526020016000820160099054906101000a900473ffffffffffffffffffffffffffffffffffffffff1673ffffffffffffffffffffffffffffffffffffffff1673ffffffffffffffffffffffffffffffffffffffff16815260200160008201601d9054906101000a900460ff1615151515815250509150600360008773ffffffffffffffffffffffffffffffffffffffff1673ffffffffffffffffffffffffffffffffffffffff168152602001908152602001600020608060405190810160405290816000820160009054906101000a900460ff166002811115612b3057fe5b6002811115612b3b57fe5b81526020016000820160019054906101000a900460ff166002811115612b5d57fe5b6002811115612b6857fe5b81526020016000820160029054906101000a900460ff16151515158152602001600182018054600181600116156101000203166002900480601f016020809104026020016040519081016040528092919081815260200182805460018160011615610100020316600290048015612c205780601f10612bf557610100808354040283529160200191612c20565b820191906000526020600020905b815481529060010190602001808311612c0357829003601f168201915b5050505050815250509050600081600001516002811115612c3d57fe5b1480612c585750600181600001516002811115612c5657fe5b145b15612c9057816020015163ffffffff168410158015612c815750816040015163ffffffff168411155b15612c8f5760019250612c95565b5b600092505b50509392505050565b6000612ca8612eb7565b600260008573ffffffffffffffffffffffffffffffffffffffff1673ffffffffffffffffffffffffffffffffffffffff16815260200190815260200160002060a060405190810160405290816000820160009054906101000a900460ff166002811115612d1157fe5b6002811115612d1c57fe5b81526020016000820160019054906101000a900463ffffffff1663ffffffff1663ffffffff1681526020016000820160059054906101000a900463ffffffff1663ffffffff1663ffffffff1681526020016000820160099054906101000a900473ffffffffffffffffffffffffffffffffffffffff1673ffffffffffffffffffffffffffffffffffffffff1673ffffffffffffffffffffffffffffffffffffffff16815260200160008201601d9054906101000a900460ff1615151515815250509050600081600001516002811115612df157fe5b1415612e2a57806020015163ffffffff168310158015612e1b5750806040015163ffffffff168311155b15612e295760019150612e2f565b5b600091505b509392505050565b828054600181600116156101000203166002900490600052602060002090601f016020900481019282601f10612e7857805160ff1916838001178555612ea6565b82800160010185558215612ea6579182015b82811115612ea5578251825591602001919060010190612e8a565b5b509050612eb39190612f57565b5090565b60a06040519081016040528060006002811115612ed057fe5b8152602001600063ffffffff168152602001600063ffffffff168152602001600073ffffffffffffffffffffffffffffffffffffffff1681526020016000151581525090565b60806040519081016040528060006002811115612f2f57fe5b815260200160006002811115612f4157fe5b8152602001600015158152602001606081525090565b612f7991905b80821115612f75576000816000905550600101612f5d565b5090565b905600a165627a7a72305820d2e88a9d8c79410489fa6d06b9443f407b37c6237b7f86cfd9e33dfeb74b82230029",
  "source": "pragma solidity ^0.4.23;\n\ncontract piiSZG {\n    \n    //enums za laku provjeru tipova sastavnica sveuilita i osoba\n    enum PersonType { Student, Profesor, Staff}\n    enum UniversityComponenetType { FER, FFZG, FSB}\n    \n    event ControlEvent(\n        bool controlEvent\n    );\n    \n    uint timeInDay = 86400;\n    uint8 numOfPersonType = 3;\n    uint8 numOfUniversityComponenetType = 3;\n  \n  \n    //struktura za zapis kontrole ulaza sadri bool \n    //jeli doputen ulaz te hash osobe koja je zatraila pristup\n    struct ControlParameter{\n        bool grantAccess;\n        address hashedAddress;\n\n    }\n\n    //struktura Member/Osoba, sadri enums tipOsobe i \n    //tipFakulteta te bool set za provjeru postoji li \n    struct Member {\n        //string jmbag;\n        PersonType personType;\n        UniversityComponenetType universityComponenetType;\n        bool set;\n        string tid;\n        //address membersHashedAddress;\n        mapping(uint => ControlParameter) accessM;\n    }\n    //bloom filtri\n    //struktura sastavnica sveuilita sadrri enum tipa fakulteta, \n    //radno vrijeme u sekundama te bool set za provjeru postoji li i \n    //zapis kontrole ulaza za tu sastvniu \n    struct UniversityComponenet {\n        //string universityKey;\n        UniversityComponenetType universityComponenetType;\n        uint32 openingTime;\n        uint32 closingTime;\n        //address universityComponenetsHashedAddress;\n        address universityComponenetAccount;\n        bool set;\n        mapping(uint => ControlParameter) access;\n\n    }\n    \n    //hashirat e se u 20bajtnu adresu? i nee moi iterirati?\n    //mapa svih komponenti sveuilita i svih osoba preko hasha jmbaga/universityKeya\n    mapping(address => UniversityComponenet) public universityComponenets;\n    mapping(address => Member) public members;\n    \n    //getteri za osobu, zakomentirani getteri se trenutno ne koriste i samo troe gas\n    function getPersonType(address _hValue) public view returns (uint){\n        require(members[_hValue].set == true);\n        return uint(members[_hValue].personType);\n    }\n    function getUniversityComponenetTypeMem(address _hValue) public view returns (uint){\n        require(members[_hValue].set == true);\n        return uint(members[_hValue].universityComponenetType);\n    }\n    function getMemberSet(address _hValue) public view returns (bool){\n        require(members[_hValue].set == true);\n        return members[_hValue].set;\n    }\n\n    //getteri za sveuilinu komponentu\n    function getUniversityComponenetTypeUC(address _hValue) public view returns (uint){\n        require(universityComponenets[_hValue].set == true);\n        return uint(universityComponenets[_hValue].universityComponenetType);\n    }  \n    function getOpeningTime(address _hValue) public view returns (uint32){\n        require(universityComponenets[_hValue].set == true);\n        return universityComponenets[_hValue].openingTime;\n    }\n    function getClosingTime(address _hValue) public view returns (uint32){\n        require(universityComponenets[_hValue].set == true);\n        return universityComponenets[_hValue].closingTime;\n    }\n    function getUniversityComponenetSet(address _hValue) public view returns (bool ){\n        require(universityComponenets[_hValue].set == true);\n        return universityComponenets[_hValue].set;\n    }\n    function getAccessFromUC(address _hValue, uint time) public view returns (bool, address){\n        require(universityComponenets[_hValue].set == true);\n        return (universityComponenets[_hValue].access[time].grantAccess, universityComponenets[_hValue].access[time].hashedAddress);\n    }\n    function getAccessFromMem(address _hValue, uint time) public view returns (bool, address){\n        require(members[_hValue].set == true);\n        return (members[_hValue].accessM[time].grantAccess, members[_hValue].accessM[time].hashedAddress);\n    }\n    \n\n    //pomone funckije\n    //provjera jesu li dobiveni podatci u ispravnom formatu\n    //pure zato to ne vraa nita iz memorije niti trai po memoriji\n    function testNum4(string str) internal pure returns (bool){\n        bytes memory b = bytes(str);\n        if(b.length != 4) return false;\n        for(uint i; i<4; i++){\n            if(b[i] < 48 || b[i] > 57) return false;\n\n        }\n        return true;\n    }\n    function testNum10(string str) internal pure returns (bool){\n        bytes memory b = bytes(str);\n        if(b.length != 10) return false;\n        for(uint i; i<10; i++){\n            if(b[i] < 48 || b[i] > 57) return false;\n        }\n        return true;\n    }    \n    function testStr24(string str) internal pure returns (bool){\n        bytes memory b = bytes(str);\n        if(b.length != 24) return false;\n        for(uint i; i<24; i++){\n            if(!((b[i] >= 48 && b[i] <= 57) || (b[i] >= 65 && b[i] <= 90) || (b[i] >= 97 && b[i] <= 122))) return false;\n\n        }\n        return true;\n    }    \n\n    //kreiranje nove osobe na temelju unosa hashedValue jmbaga\n    function createMember(address _hValue, PersonType _personType, UniversityComponenetType _uComponenetType, string _tid) public returns(bool){\n        require(uint(_personType) < numOfPersonType && uint(_uComponenetType) < numOfUniversityComponenetType);\n        require(members[_hValue].set != true);\n        require(testStr24(_tid) == true);\n        //svejedno koji nain, oba su ispravna, prvi je krai-1liner\n        members[_hValue] = Member(_personType,_uComponenetType,true,_tid);\n        //members[_hValue].personType = _personType;\n        //members[_hValue].universityComponenetType = _uComponenetType;\n        //members[_hValue].set = true;\n        emit ControlEvent(true);\n        return true;\n    }\n\n\n    //kreiranje nove komponente sveuilita na temelju unosa hashedValue universityKeya\n    function createUniversityComponenet(address _hValue, UniversityComponenetType _uComponenetType,uint32 _openingTime, uint32 _closingTime) public returns(bool){\n        require(uint(_uComponenetType) < numOfUniversityComponenetType && _openingTime <= timeInDay && _closingTime <= timeInDay);\n        //_hValue = msg.sender;\n        require(universityComponenets[_hValue].set != true);\n        //registerUC(_hValue);\n        universityComponenets[_hValue] = UniversityComponenet(_uComponenetType, _openingTime, _closingTime,msg.sender,true);\n        emit ControlEvent(true);\n        return true;\n    } \n    \n    //funkcija za provjeru i kreiranje transakcije te zove interne funkcije koje provjeravaju logike cijeline te na temelju toga radi transakciju\n    function callAccessTransaction(address addressHashMember, address addressHashUniversityComponenet, uint ttime, uint transactionDateTime, string tid) public returns(bool){\n        //require(testStr20(addressHashMember) && testStr20(addressHashUniversityComponenet) && ttime <= timeInDay);\n        require(msg.sender == universityComponenets[addressHashUniversityComponenet].universityComponenetAccount);\n        require(ttime <= timeInDay && members[addressHashMember].set == true && universityComponenets[addressHashUniversityComponenet].set == true);\n        require(testStr24(tid) == true);\n        bool _access = false;\n        \n        //provjera jeli dostavljeni tid jednak onome zapisanom u memberu preko hasha, troi puno manje gasa\n        if(keccak256(tid) != keccak256(members[addressHashMember].tid)){\n            emit ControlEvent(false);\n            return false;\n        }\n        \n        //addressHashUniversityComponenet = msg.sender;\n        _access = checkSameUniversityOpenedOrPrivileged(addressHashMember,addressHashUniversityComponenet,ttime);\n        if(_access == true){\n            universityComponenets[addressHashUniversityComponenet].access[transactionDateTime] = ControlParameter(_access,addressHashMember);\n            members[addressHashMember].accessM[transactionDateTime] = ControlParameter(_access,addressHashUniversityComponenet);\n            emit ControlEvent(true);\n            return true;\n        }\n        _access = checkNotSameUniversityOpenedStudentProfesor(addressHashMember,addressHashUniversityComponenet,ttime);    \n        if(_access == true){\n            universityComponenets[addressHashUniversityComponenet].access[transactionDateTime] = ControlParameter(_access,addressHashMember);\n            members[addressHashMember].accessM[transactionDateTime] = ControlParameter(_access,addressHashUniversityComponenet);\n            emit ControlEvent(true);\n            return true;\n        }\n        _access = checkNotSameUniversityOpenedFER(addressHashMember,addressHashUniversityComponenet,ttime);    \n        if(_access == true){\n            universityComponenets[addressHashUniversityComponenet].access[transactionDateTime] = ControlParameter(_access,addressHashMember);\n            members[addressHashMember].accessM[transactionDateTime] = ControlParameter(_access,addressHashUniversityComponenet);\n            emit ControlEvent(true);\n            return true;\n        }\n        universityComponenets[addressHashUniversityComponenet].access[transactionDateTime] = ControlParameter(_access,addressHashMember);\n        members[addressHashMember].accessM[transactionDateTime] = ControlParameter(_access,addressHashUniversityComponenet);\n        emit ControlEvent(false);\n        return false;    \n    }\n    \n    //funkcije za reguliranje ulaza podijeljenje prema logikim komponentama\n    function checkSameUniversityOpenedOrPrivileged(address addressHashMember, address addressHashUniversityComponenet, uint ttime) internal view returns(bool){\n        UniversityComponenet memory _universityComponenet = universityComponenets[addressHashUniversityComponenet];\n        Member memory _member = members[addressHashMember]; \n        if(_universityComponenet.universityComponenetType == _member.universityComponenetType){\n            if(ttime >= _universityComponenet.openingTime && ttime <= _universityComponenet.closingTime)\n                return true;\n            else if(uint(_member.personType) == 1 || uint(_member.personType) == 2)\n                return true;\n        }\n        return false;    \n    }\n    function checkNotSameUniversityOpenedStudentProfesor(address addressHashMember, address addressHashUniversityComponenet, uint ttime) internal view returns(bool){\n        UniversityComponenet memory _universityComponenet = universityComponenets[addressHashUniversityComponenet];\n        Member memory _member = members[addressHashMember]; \n        if(uint(_member.personType) == 0 || uint(_member.personType) == 1){\n            if(ttime >= _universityComponenet.openingTime && ttime <= _universityComponenet.closingTime)\n                return true;\n        }\n        return false;\n    }\n    function checkNotSameUniversityOpenedFER(address addressHashMember, address addressHashUniversityComponenet, uint ttime) internal view returns(bool){\n        UniversityComponenet memory _universityComponenet = universityComponenets[addressHashUniversityComponenet];\n        //Member memory  _member = members[addressHashMember]; \n        if(uint(_universityComponenet.universityComponenetType) == 0){\n            if(ttime >= _universityComponenet.openingTime && ttime <= _universityComponenet.closingTime)\n                return true;\n        }\n        return false;\n    }\n}\n\n",
  "sourcePath": "/home/kresho/Downloads/diplomski/ethereumDIR/truffle/pii-szg/contracts/piiSZG.sol",
  "compiler": {
    "name": "solc",
    "version": "0.4.23+commit.124ca40d.Emscripten.clang"
  },
  "schemaVersion": "2.0.0",
  "updatedAt": "2018-06-08T11:54:19.796Z"
}